{
  "_format": "hh-sol-artifact-1",
  "contractName": "Safe",
  "sourceName": "contracts/Safe.sol",
  "abi": [
    {
      "inputs": [],
      "stateMutability": "nonpayable",
      "type": "constructor"
    },
    {
      "inputs": [
        {
          "internalType": "address",
          "name": "",
          "type": "address"
        }
      ],
      "name": "balances",
      "outputs": [
        {
          "internalType": "uint256",
          "name": "",
          "type": "uint256"
        }
      ],
      "stateMutability": "view",
      "type": "function"
    },
    {
      "inputs": [],
      "name": "owner",
      "outputs": [
        {
          "internalType": "address",
          "name": "",
          "type": "address"
        }
      ],
      "stateMutability": "view",
      "type": "function"
    },
    {
      "inputs": [],
      "name": "seeBalance",
      "outputs": [
        {
          "internalType": "uint256",
          "name": "",
          "type": "uint256"
        }
      ],
      "stateMutability": "view",
      "type": "function"
    },
    {
      "inputs": [
        {
          "internalType": "address",
          "name": "_address",
          "type": "address"
        }
      ],
      "name": "seeBalanceOfWallet",
      "outputs": [
        {
          "internalType": "uint256",
          "name": "",
          "type": "uint256"
        }
      ],
      "stateMutability": "view",
      "type": "function"
    },
    {
      "inputs": [
        {
          "internalType": "address",
          "name": "_address",
          "type": "address"
        }
      ],
      "name": "sendBalanceMoneyTo",
      "outputs": [],
      "stateMutability": "nonpayable",
      "type": "function"
    },
    {
      "inputs": [
        {
          "internalType": "address[]",
          "name": "addresses",
          "type": "address[]"
        }
      ],
      "name": "sendBalanceToAll",
      "outputs": [],
      "stateMutability": "nonpayable",
      "type": "function"
    },
    {
      "inputs": [],
      "name": "sendMoney",
      "outputs": [],
      "stateMutability": "payable",
      "type": "function"
    },
    {
      "inputs": [],
      "name": "viewBalance",
      "outputs": [
        {
          "internalType": "uint256",
          "name": "",
          "type": "uint256"
        }
      ],
      "stateMutability": "view",
      "type": "function"
    },
    {
      "inputs": [],
      "name": "withDrawAll",
      "outputs": [],
      "stateMutability": "nonpayable",
      "type": "function"
    },
    {
      "inputs": [
        {
          "internalType": "uint256",
          "name": "amount",
          "type": "uint256"
        }
      ],
      "name": "withdraw",
      "outputs": [],
      "stateMutability": "payable",
      "type": "function"
    }
  ],
  "bytecode": "0x6080604052348015600f57600080fd5b50336000806101000a81548173ffffffffffffffffffffffffffffffffffffffff021916908373ffffffffffffffffffffffffffffffffffffffff160217905550610f9c8061005f6000396000f3fe6080604052600436106100915760003560e01c80638da5cb5b116100595780638da5cb5b14610182578063991671e2146101ad578063a43881b6146101c4578063bf9d9b91146101ed578063cbedbf5a1461021657610091565b806310ac0b2d1461009657806327e235e3146100d35780632e1a7d4d146101105780633ff1e05b1461012c578063429a1bb014610157575b600080fd5b3480156100a257600080fd5b506100bd60048036038101906100b89190610a0d565b610220565b6040516100ca9190610a53565b60405180910390f35b3480156100df57600080fd5b506100fa60048036038101906100f59190610a0d565b610269565b6040516101079190610a53565b60405180910390f35b61012a60048036038101906101259190610a9a565b610281565b005b34801561013857600080fd5b50610141610431565b60405161014e9190610a53565b60405180910390f35b34801561016357600080fd5b5061016c610439565b6040516101799190610a53565b60405180910390f35b34801561018e57600080fd5b50610197610480565b6040516101a49190610ad6565b60405180910390f35b3480156101b957600080fd5b506101c26104a4565b005b3480156101d057600080fd5b506101eb60048036038101906101e69190610a0d565b61057b565b005b3480156101f957600080fd5b50610214600480360381019061020f9190610c4a565b610752565b005b61021e6108f8565b005b6000600160008373ffffffffffffffffffffffffffffffffffffffff1673ffffffffffffffffffffffffffffffffffffffff168152602001908152602001600020549050919050565b60016020528060005260406000206000915090505481565b60008054906101000a900473ffffffffffffffffffffffffffffffffffffffff1673ffffffffffffffffffffffffffffffffffffffff163373ffffffffffffffffffffffffffffffffffffffff161461030f576040517f08c379a000000000000000000000000000000000000000000000000000000000815260040161030690610cf0565b60405180910390fd5b80600160003373ffffffffffffffffffffffffffffffffffffffff1673ffffffffffffffffffffffffffffffffffffffff168152602001908152602001600020541015610391576040517f08c379a000000000000000000000000000000000000000000000000000000000815260040161038890610d5c565b60405180910390fd5b80600160003373ffffffffffffffffffffffffffffffffffffffff1673ffffffffffffffffffffffffffffffffffffffff16815260200190815260200160002060008282546103e09190610dab565b925050819055503373ffffffffffffffffffffffffffffffffffffffff166108fc829081150290604051600060405180830381858888f1935050505015801561042d573d6000803e3d6000fd5b5050565b600047905090565b6000600160003373ffffffffffffffffffffffffffffffffffffffff1673ffffffffffffffffffffffffffffffffffffffff16815260200190815260200160002054905090565b60008054906101000a900473ffffffffffffffffffffffffffffffffffffffff1681565b60008054906101000a900473ffffffffffffffffffffffffffffffffffffffff1673ffffffffffffffffffffffffffffffffffffffff163373ffffffffffffffffffffffffffffffffffffffff1614610532576040517f08c379a000000000000000000000000000000000000000000000000000000000815260040161052990610cf0565b60405180910390fd5b3373ffffffffffffffffffffffffffffffffffffffff166108fc479081150290604051600060405180830381858888f19350505050158015610578573d6000803e3d6000fd5b50565b60008054906101000a900473ffffffffffffffffffffffffffffffffffffffff1673ffffffffffffffffffffffffffffffffffffffff163373ffffffffffffffffffffffffffffffffffffffff1614610609576040517f08c379a000000000000000000000000000000000000000000000000000000000815260040161060090610cf0565b60405180910390fd5b67016345785d8a0000600160003373ffffffffffffffffffffffffffffffffffffffff1673ffffffffffffffffffffffffffffffffffffffff168152602001908152602001600020541015610693576040517f08c379a000000000000000000000000000000000000000000000000000000000815260040161068a90610d5c565b60405180910390fd5b67016345785d8a0000600160003373ffffffffffffffffffffffffffffffffffffffff1673ffffffffffffffffffffffffffffffffffffffff16815260200190815260200160002060008282546106ea9190610dab565b9250508190555067016345785d8a0000600160008373ffffffffffffffffffffffffffffffffffffffff1673ffffffffffffffffffffffffffffffffffffffff16815260200190815260200160002060008282546107489190610ddf565b9250508190555050565b60008054906101000a900473ffffffffffffffffffffffffffffffffffffffff1673ffffffffffffffffffffffffffffffffffffffff163373ffffffffffffffffffffffffffffffffffffffff16146107e0576040517f08c379a00000000000000000000000000000000000000000000000000000000081526004016107d790610e85565b60405180910390fd5b60005b81518110156108f457600082828151811061080157610800610ea5565b5b602002602001015190506000600160008373ffffffffffffffffffffffffffffffffffffffff1673ffffffffffffffffffffffffffffffffffffffff16815260200190815260200160002054905060008111156108e5576000600160008473ffffffffffffffffffffffffffffffffffffffff1673ffffffffffffffffffffffffffffffffffffffff168152602001908152602001600020819055508173ffffffffffffffffffffffffffffffffffffffff166108fc829081150290604051600060405180830381858888f193505050501580156108e3573d6000803e3d6000fd5b505b505080806001019150506107e3565b5050565b67016345785d8a0000341015610943576040517f08c379a000000000000000000000000000000000000000000000000000000000815260040161093a90610f46565b60405180910390fd5b34600160003373ffffffffffffffffffffffffffffffffffffffff1673ffffffffffffffffffffffffffffffffffffffff16815260200190815260200160002060008282546109929190610ddf565b92505081905550565b6000604051905090565b600080fd5b600080fd5b600073ffffffffffffffffffffffffffffffffffffffff82169050919050565b60006109da826109af565b9050919050565b6109ea816109cf565b81146109f557600080fd5b50565b600081359050610a07816109e1565b92915050565b600060208284031215610a2357610a226109a5565b5b6000610a31848285016109f8565b91505092915050565b6000819050919050565b610a4d81610a3a565b82525050565b6000602082019050610a686000830184610a44565b92915050565b610a7781610a3a565b8114610a8257600080fd5b50565b600081359050610a9481610a6e565b92915050565b600060208284031215610ab057610aaf6109a5565b5b6000610abe84828501610a85565b91505092915050565b610ad0816109cf565b82525050565b6000602082019050610aeb6000830184610ac7565b92915050565b600080fd5b6000601f19601f8301169050919050565b7f4e487b7100000000000000000000000000000000000000000000000000000000600052604160045260246000fd5b610b3f82610af6565b810181811067ffffffffffffffff82111715610b5e57610b5d610b07565b5b80604052505050565b6000610b7161099b565b9050610b7d8282610b36565b919050565b600067ffffffffffffffff821115610b9d57610b9c610b07565b5b602082029050602081019050919050565b600080fd5b6000610bc6610bc184610b82565b610b67565b90508083825260208201905060208402830185811115610be957610be8610bae565b5b835b81811015610c125780610bfe88826109f8565b845260208401935050602081019050610beb565b5050509392505050565b600082601f830112610c3157610c30610af1565b5b8135610c41848260208601610bb3565b91505092915050565b600060208284031215610c6057610c5f6109a5565b5b600082013567ffffffffffffffff811115610c7e57610c7d6109aa565b5b610c8a84828501610c1c565b91505092915050565b600082825260208201905092915050565b7f596f7520617265206e6f7420746865206f776e65720000000000000000000000600082015250565b6000610cda601583610c93565b9150610ce582610ca4565b602082019050919050565b60006020820190508181036000830152610d0981610ccd565b9050919050565b7f496e73756666696369656e742062616c616e6365000000000000000000000000600082015250565b6000610d46601483610c93565b9150610d5182610d10565b602082019050919050565b60006020820190508181036000830152610d7581610d39565b9050919050565b7f4e487b7100000000000000000000000000000000000000000000000000000000600052601160045260246000fd5b6000610db682610a3a565b9150610dc183610a3a565b9250828203905081811115610dd957610dd8610d7c565b5b92915050565b6000610dea82610a3a565b9150610df583610a3a565b9250828201905080821115610e0d57610e0c610d7c565b5b92915050565b7f4f6e6c79206f776e65722063616e206469737472696275746520616c6c20626160008201527f6c616e6365730000000000000000000000000000000000000000000000000000602082015250565b6000610e6f602683610c93565b9150610e7a82610e13565b604082019050919050565b60006020820190508181036000830152610e9e81610e62565b9050919050565b7f4e487b7100000000000000000000000000000000000000000000000000000000600052603260045260246000fd5b7f596f75206e65656420746f2073656e64206174206c6561737420302e3120657460008201527f6865720000000000000000000000000000000000000000000000000000000000602082015250565b6000610f30602383610c93565b9150610f3b82610ed4565b604082019050919050565b60006020820190508181036000830152610f5f81610f23565b905091905056fea26469706673582212202b0fbd4effc4281c3834989329f3ff4c6b9906237147213f52e9a1fbb72ce9a664736f6c634300081c0033",
  "linkReferences": {},
  "deployedLinkReferences": {}
}