{
  "_format": "hh-sol-artifact-1",
  "contractName": "Vote",
  "sourceName": "contracts/Vote.sol",
  "abi": [
    {
      "inputs": [],
      "stateMutability": "nonpayable",
      "type": "constructor"
    },
    {
      "inputs": [
        {
          "internalType": "string",
          "name": "_question",
          "type": "string"
        },
        {
          "internalType": "string[]",
          "name": "_options",
          "type": "string[]"
        }
      ],
      "name": "createPoll",
      "outputs": [],
      "stateMutability": "nonpayable",
      "type": "function"
    },
    {
      "inputs": [
        {
          "internalType": "uint256",
          "name": "_pollId",
          "type": "uint256"
        }
      ],
      "name": "endPoll",
      "outputs": [],
      "stateMutability": "nonpayable",
      "type": "function"
    },
    {
      "inputs": [],
      "name": "getAllPolls",
      "outputs": [
        {
          "internalType": "string[]",
          "name": "questions",
          "type": "string[]"
        },
        {
          "internalType": "string[][]",
          "name": "allOptions",
          "type": "string[][]"
        },
        {
          "internalType": "uint256[][]",
          "name": "allVotes",
          "type": "uint256[][]"
        },
        {
          "internalType": "bool[]",
          "name": "isActive",
          "type": "bool[]"
        },
        {
          "internalType": "bool[]",
          "name": "hasVoted",
          "type": "bool[]"
        }
      ],
      "stateMutability": "view",
      "type": "function"
    },
    {
      "inputs": [],
      "name": "getOwner",
      "outputs": [
        {
          "internalType": "address",
          "name": "",
          "type": "address"
        }
      ],
      "stateMutability": "view",
      "type": "function"
    },
    {
      "inputs": [
        {
          "internalType": "uint256",
          "name": "_pollId",
          "type": "uint256"
        }
      ],
      "name": "getPoll",
      "outputs": [
        {
          "internalType": "string",
          "name": "",
          "type": "string"
        },
        {
          "internalType": "string[]",
          "name": "",
          "type": "string[]"
        },
        {
          "internalType": "uint256[]",
          "name": "",
          "type": "uint256[]"
        }
      ],
      "stateMutability": "view",
      "type": "function"
    },
    {
      "inputs": [
        {
          "internalType": "uint256",
          "name": "_pollId",
          "type": "uint256"
        }
      ],
      "name": "getPollResults",
      "outputs": [
        {
          "internalType": "string",
          "name": "",
          "type": "string"
        },
        {
          "internalType": "string[]",
          "name": "",
          "type": "string[]"
        },
        {
          "internalType": "uint256[]",
          "name": "",
          "type": "uint256[]"
        }
      ],
      "stateMutability": "view",
      "type": "function"
    },
    {
      "inputs": [],
      "name": "owner",
      "outputs": [
        {
          "internalType": "address",
          "name": "",
          "type": "address"
        }
      ],
      "stateMutability": "view",
      "type": "function"
    },
    {
      "inputs": [
        {
          "internalType": "uint256",
          "name": "",
          "type": "uint256"
        }
      ],
      "name": "polls",
      "outputs": [
        {
          "internalType": "string",
          "name": "question",
          "type": "string"
        },
        {
          "internalType": "bool",
          "name": "isActive",
          "type": "bool"
        }
      ],
      "stateMutability": "view",
      "type": "function"
    },
    {
      "inputs": [
        {
          "internalType": "uint256",
          "name": "_pollId",
          "type": "uint256"
        },
        {
          "internalType": "uint256",
          "name": "_optionId",
          "type": "uint256"
        }
      ],
      "name": "vote",
      "outputs": [],
      "stateMutability": "nonpayable",
      "type": "function"
    }
  ],
  "bytecode": "0x6080604052348015600f57600080fd5b50336000806101000a81548173ffffffffffffffffffffffffffffffffffffffff021916908373ffffffffffffffffffffffffffffffffffffffff16021790555061244a8061005f6000396000f3fe608060405234801561001057600080fd5b50600436106100935760003560e01c8063893d20e811610066578063893d20e81461013a5780638da5cb5b14610158578063ac2f007414610176578063b384abef146101a7578063f43b8778146101c357610093565b80631a8cbcaa1461009857806332b633fa146100ca57806333b4097b146100ec5780637e3d71c31461011e575b600080fd5b6100b260048036038101906100ad9190611336565b6101df565b6040516100c1939291906115bd565b60405180910390f35b6100d2610411565b6040516100e395949392919061194c565b60405180910390f35b61010660048036038101906101019190611336565b610892565b604051610115939291906115bd565b60405180910390f35b61013860048036038101906101339190611bdd565b610ac4565b005b610142610cf1565b60405161014f9190611c96565b60405180910390f35b610160610d1a565b60405161016d9190611c96565b60405180910390f35b610190600480360381019061018b9190611336565b610d3e565b60405161019e929190611cc0565b60405180910390f35b6101c160048036038101906101bc9190611cf0565b610e07565b005b6101dd60048036038101906101d89190611336565b6110af565b005b6060806060600184815481106101f8576101f7611d30565b5b90600052602060002090600502016000016001858154811061021d5761021c611d30565b5b90600052602060002090600502016001016001868154811061024257610241611d30565b5b906000526020600020906005020160020182805461025f90611d8e565b80601f016020809104026020016040519081016040528092919081815260200182805461028b90611d8e565b80156102d85780601f106102ad576101008083540402835291602001916102d8565b820191906000526020600020905b8154815290600101906020018083116102bb57829003601f168201915b5050505050925081805480602002602001604051908101604052809291908181526020016000905b828210156103ac57838290600052602060002001805461031f90611d8e565b80601f016020809104026020016040519081016040528092919081815260200182805461034b90611d8e565b80156103985780601f1061036d57610100808354040283529160200191610398565b820191906000526020600020905b81548152906001019060200180831161037b57829003601f168201915b505050505081526020019060010190610300565b505050509150808054806020026020016040519081016040528092919081815260200182805480156103fd57602002820191906000526020600020905b8154815260200190600101908083116103e9575b505050505090509250925092509193909250565b6060806060806060600060018054905090508067ffffffffffffffff81111561043d5761043c6119cc565b5b60405190808252806020026020018201604052801561047057816020015b606081526020019060019003908161045b5790505b5095508067ffffffffffffffff81111561048d5761048c6119cc565b5b6040519080825280602002602001820160405280156104c057816020015b60608152602001906001900390816104ab5790505b5094508067ffffffffffffffff8111156104dd576104dc6119cc565b5b60405190808252806020026020018201604052801561051057816020015b60608152602001906001900390816104fb5790505b50935060005b81811015610889576001818154811061053257610531611d30565b5b9060005260206000209060050201600001805461054e90611d8e565b80601f016020809104026020016040519081016040528092919081815260200182805461057a90611d8e565b80156105c75780601f1061059c576101008083540402835291602001916105c7565b820191906000526020600020905b8154815290600101906020018083116105aa57829003601f168201915b50505050508782815181106105df576105de611d30565b5b6020026020010181905250600181815481106105fe576105fd611d30565b5b9060005260206000209060050201600101805480602002602001604051908101604052809291908181526020016000905b828210156106db57838290600052602060002001805461064e90611d8e565b80601f016020809104026020016040519081016040528092919081815260200182805461067a90611d8e565b80156106c75780601f1061069c576101008083540402835291602001916106c7565b820191906000526020600020905b8154815290600101906020018083116106aa57829003601f168201915b50505050508152602001906001019061062f565b505050508682815181106106f2576106f1611d30565b5b60200260200101819052506001818154811061071157610710611d30565b5b906000526020600020906005020160020180548060200260200160405190810160405280929190818152602001828054801561076c57602002820191906000526020600020905b815481526020019060010190808311610758575b505050505085828151811061078457610783611d30565b5b6020026020010181905250600181815481106107a3576107a2611d30565b5b906000526020600020906005020160030160009054906101000a900460ff168482815181106107d5576107d4611d30565b5b602002602001019015159081151581525050600181815481106107fb576107fa611d30565b5b906000526020600020906005020160040160003373ffffffffffffffffffffffffffffffffffffffff1673ffffffffffffffffffffffffffffffffffffffff16815260200190815260200160002060009054906101000a900460ff1683828151811061086a57610869611d30565b5b6020026020010190151590811515815250508080600101915050610516565b50509091929394565b6060806060600184815481106108ab576108aa611d30565b5b9060005260206000209060050201600001600185815481106108d0576108cf611d30565b5b9060005260206000209060050201600101600186815481106108f5576108f4611d30565b5b906000526020600020906005020160020182805461091290611d8e565b80601f016020809104026020016040519081016040528092919081815260200182805461093e90611d8e565b801561098b5780601f106109605761010080835404028352916020019161098b565b820191906000526020600020905b81548152906001019060200180831161096e57829003601f168201915b5050505050925081805480602002602001604051908101604052809291908181526020016000905b82821015610a5f5783829060005260206000200180546109d290611d8e565b80601f01602080910402602001604051908101604052809291908181526020018280546109fe90611d8e565b8015610a4b5780601f10610a2057610100808354040283529160200191610a4b565b820191906000526020600020905b815481529060010190602001808311610a2e57829003601f168201915b5050505050815260200190600101906109b3565b50505050915080805480602002602001604051908101604052809291908181526020018280548015610ab057602002820191906000526020600020905b815481526020019060010190808311610a9c575b505050505090509250925092509193909250565b60008054906101000a900473ffffffffffffffffffffffffffffffffffffffff1673ffffffffffffffffffffffffffffffffffffffff163373ffffffffffffffffffffffffffffffffffffffff1614610b52576040517f08c379a0000000000000000000000000000000000000000000000000000000008152600401610b4990611e0b565b60405180910390fd5b6000815111610b96576040517f08c379a0000000000000000000000000000000000000000000000000000000008152600401610b8d90611e77565b60405180910390fd5b600a81511115610bdb576040517f08c379a0000000000000000000000000000000000000000000000000000000008152600401610bd290611ee3565b60405180910390fd5b6000825111610c1f576040517f08c379a0000000000000000000000000000000000000000000000000000000008152600401610c1690611f4f565b60405180910390fd5b600060018081600181540180825580915050039060005260206000209060050201905082816000019081610c53919061211b565b5081816001019080519060200190610c6c9291906111c5565b50815167ffffffffffffffff811115610c8857610c876119cc565b5b604051908082528060200260200182016040528015610cb65781602001602082028036833780820191505090505b50816002019080519060200190610cce92919061121e565b5060018160030160006101000a81548160ff021916908315150217905550505050565b60008060009054906101000a900473ffffffffffffffffffffffffffffffffffffffff16905090565b60008054906101000a900473ffffffffffffffffffffffffffffffffffffffff1681565b60018181548110610d4e57600080fd5b9060005260206000209060050201600091509050806000018054610d7190611d8e565b80601f0160208091040260200160405190810160405280929190818152602001828054610d9d90611d8e565b8015610dea5780601f10610dbf57610100808354040283529160200191610dea565b820191906000526020600020905b815481529060010190602001808311610dcd57829003601f168201915b5050505050908060030160009054906101000a900460ff16905082565b6001805490508210610e4e576040517f08c379a0000000000000000000000000000000000000000000000000000000008152600401610e4590612239565b60405180910390fd5b60018281548110610e6257610e61611d30565b5b9060005260206000209060050201600101805490508110610eb8576040517f08c379a0000000000000000000000000000000000000000000000000000000008152600401610eaf906122a5565b60405180910390fd5b60018281548110610ecc57610ecb611d30565b5b906000526020600020906005020160030160009054906101000a900460ff16610f2a576040517f08c379a0000000000000000000000000000000000000000000000000000000008152600401610f2190612311565b60405180910390fd5b60018281548110610f3e57610f3d611d30565b5b906000526020600020906005020160040160003373ffffffffffffffffffffffffffffffffffffffff1673ffffffffffffffffffffffffffffffffffffffff16815260200190815260200160002060009054906101000a900460ff1615610fda576040517f08c379a0000000000000000000000000000000000000000000000000000000008152600401610fd19061237d565b60405180910390fd5b60018281548110610fee57610fed611d30565b5b9060005260206000209060050201600201818154811061101157611010611d30565b5b90600052602060002001600081548092919061102c906123cc565b9190505550600180838154811061104657611045611d30565b5b906000526020600020906005020160040160003373ffffffffffffffffffffffffffffffffffffffff1673ffffffffffffffffffffffffffffffffffffffff16815260200190815260200160002060006101000a81548160ff0219169083151502179055505050565b60008054906101000a900473ffffffffffffffffffffffffffffffffffffffff1673ffffffffffffffffffffffffffffffffffffffff163373ffffffffffffffffffffffffffffffffffffffff161461113d576040517f08c379a000000000000000000000000000000000000000000000000000000000815260040161113490611e0b565b60405180910390fd5b6001805490508110611184576040517f08c379a000000000000000000000000000000000000000000000000000000000815260040161117b90612239565b60405180910390fd5b60006001828154811061119a57611199611d30565b5b906000526020600020906005020160030160006101000a81548160ff02191690831515021790555050565b82805482825590600052602060002090810192821561120d579160200282015b8281111561120c5782518290816111fc919061211b565b50916020019190600101906111e5565b5b50905061121a919061126b565b5090565b82805482825590600052602060002090810192821561125a579160200282015b8281111561125957825182559160200191906001019061123e565b5b509050611267919061128f565b5090565b5b8082111561128b576000818161128291906112ac565b5060010161126c565b5090565b5b808211156112a8576000816000905550600101611290565b5090565b5080546112b890611d8e565b6000825580601f106112ca57506112e9565b601f0160209004906000526020600020908101906112e8919061128f565b5b50565b6000604051905090565b600080fd5b600080fd5b6000819050919050565b61131381611300565b811461131e57600080fd5b50565b6000813590506113308161130a565b92915050565b60006020828403121561134c5761134b6112f6565b5b600061135a84828501611321565b91505092915050565b600081519050919050565b600082825260208201905092915050565b60005b8381101561139d578082015181840152602081019050611382565b60008484015250505050565b6000601f19601f8301169050919050565b60006113c582611363565b6113cf818561136e565b93506113df81856020860161137f565b6113e8816113a9565b840191505092915050565b600081519050919050565b600082825260208201905092915050565b6000819050602082019050919050565b600082825260208201905092915050565b600061143b82611363565b611445818561141f565b935061145581856020860161137f565b61145e816113a9565b840191505092915050565b60006114758383611430565b905092915050565b6000602082019050919050565b6000611495826113f3565b61149f81856113fe565b9350836020820285016114b18561140f565b8060005b858110156114ed57848403895281516114ce8582611469565b94506114d98361147d565b925060208a019950506001810190506114b5565b50829750879550505050505092915050565b600081519050919050565b600082825260208201905092915050565b6000819050602082019050919050565b61153481611300565b82525050565b6000611546838361152b565b60208301905092915050565b6000602082019050919050565b600061156a826114ff565b611574818561150a565b935061157f8361151b565b8060005b838110156115b0578151611597888261153a565b97506115a283611552565b925050600181019050611583565b5085935050505092915050565b600060608201905081810360008301526115d781866113ba565b905081810360208301526115eb818561148a565b905081810360408301526115ff818461155f565b9050949350505050565b600081519050919050565b600082825260208201905092915050565b6000819050602082019050919050565b600082825260208201905092915050565b6000611651826113f3565b61165b8185611635565b93508360208202850161166d8561140f565b8060005b858110156116a9578484038952815161168a8582611469565b94506116958361147d565b925060208a01995050600181019050611671565b50829750879550505050505092915050565b60006116c78383611646565b905092915050565b6000602082019050919050565b60006116e782611609565b6116f18185611614565b93508360208202850161170385611625565b8060005b8581101561173f578484038952815161172085826116bb565b945061172b836116cf565b925060208a01995050600181019050611707565b50829750879550505050505092915050565b600081519050919050565b600082825260208201905092915050565b6000819050602082019050919050565b600082825260208201905092915050565b6000611799826114ff565b6117a3818561177d565b93506117ae8361151b565b8060005b838110156117df5781516117c6888261153a565b97506117d183611552565b9250506001810190506117b2565b5085935050505092915050565b60006117f8838361178e565b905092915050565b6000602082019050919050565b600061181882611751565b611822818561175c565b9350836020820285016118348561176d565b8060005b85811015611870578484038952815161185185826117ec565b945061185c83611800565b925060208a01995050600181019050611838565b50829750879550505050505092915050565b600081519050919050565b600082825260208201905092915050565b6000819050602082019050919050565b60008115159050919050565b6118c3816118ae565b82525050565b60006118d583836118ba565b60208301905092915050565b6000602082019050919050565b60006118f982611882565b611903818561188d565b935061190e8361189e565b8060005b8381101561193f57815161192688826118c9565b9750611931836118e1565b925050600181019050611912565b5085935050505092915050565b600060a0820190508181036000830152611966818861148a565b9050818103602083015261197a81876116dc565b9050818103604083015261198e818661180d565b905081810360608301526119a281856118ee565b905081810360808301526119b681846118ee565b90509695505050505050565b600080fd5b600080fd5b7f4e487b7100000000000000000000000000000000000000000000000000000000600052604160045260246000fd5b611a04826113a9565b810181811067ffffffffffffffff82111715611a2357611a226119cc565b5b80604052505050565b6000611a366112ec565b9050611a4282826119fb565b919050565b600067ffffffffffffffff821115611a6257611a616119cc565b5b611a6b826113a9565b9050602081019050919050565b82818337600083830152505050565b6000611a9a611a9584611a47565b611a2c565b905082815260208101848484011115611ab657611ab56119c7565b5b611ac1848285611a78565b509392505050565b600082601f830112611ade57611add6119c2565b5b8135611aee848260208601611a87565b91505092915050565b600067ffffffffffffffff821115611b1257611b116119cc565b5b602082029050602081019050919050565b600080fd5b6000611b3b611b3684611af7565b611a2c565b90508083825260208201905060208402830185811115611b5e57611b5d611b23565b5b835b81811015611ba557803567ffffffffffffffff811115611b8357611b826119c2565b5b808601611b908982611ac9565b85526020850194505050602081019050611b60565b5050509392505050565b600082601f830112611bc457611bc36119c2565b5b8135611bd4848260208601611b28565b91505092915050565b60008060408385031215611bf457611bf36112f6565b5b600083013567ffffffffffffffff811115611c1257611c116112fb565b5b611c1e85828601611ac9565b925050602083013567ffffffffffffffff811115611c3f57611c3e6112fb565b5b611c4b85828601611baf565b9150509250929050565b600073ffffffffffffffffffffffffffffffffffffffff82169050919050565b6000611c8082611c55565b9050919050565b611c9081611c75565b82525050565b6000602082019050611cab6000830184611c87565b92915050565b611cba816118ae565b82525050565b60006040820190508181036000830152611cda81856113ba565b9050611ce96020830184611cb1565b9392505050565b60008060408385031215611d0757611d066112f6565b5b6000611d1585828601611321565b9250506020611d2685828601611321565b9150509250929050565b7f4e487b7100000000000000000000000000000000000000000000000000000000600052603260045260246000fd5b7f4e487b7100000000000000000000000000000000000000000000000000000000600052602260045260246000fd5b60006002820490506001821680611da657607f821691505b602082108103611db957611db8611d5f565b5b50919050565b7f596f7520617265206e6f7420746865206f776e65720000000000000000000000600082015250565b6000611df560158361136e565b9150611e0082611dbf565b602082019050919050565b60006020820190508181036000830152611e2481611de8565b9050919050565b7f4f7074696f6e732063616e6e6f7420626520656d707479000000000000000000600082015250565b6000611e6160178361136e565b9150611e6c82611e2b565b602082019050919050565b60006020820190508181036000830152611e9081611e54565b9050919050565b7f4f7074696f6e732063616e6e6f74206265206d6f7265207468616e2031300000600082015250565b6000611ecd601e8361136e565b9150611ed882611e97565b602082019050919050565b60006020820190508181036000830152611efc81611ec0565b9050919050565b7f5175657374696f6e2063616e6e6f7420626520656d7074790000000000000000600082015250565b6000611f3960188361136e565b9150611f4482611f03565b602082019050919050565b60006020820190508181036000830152611f6881611f2c565b9050919050565b60008190508160005260206000209050919050565b60006020601f8301049050919050565b600082821b905092915050565b600060088302611fd17fffffffffffffffffffffffffffffffffffffffffffffffffffffffffffffffff82611f94565b611fdb8683611f94565b95508019841693508086168417925050509392505050565b6000819050919050565b600061201861201361200e84611300565b611ff3565b611300565b9050919050565b6000819050919050565b61203283611ffd565b61204661203e8261201f565b848454611fa1565b825550505050565b600090565b61205b61204e565b612066818484612029565b505050565b5b8181101561208a5761207f600082612053565b60018101905061206c565b5050565b601f8211156120cf576120a081611f6f565b6120a984611f84565b810160208510156120b8578190505b6120cc6120c485611f84565b83018261206b565b50505b505050565b600082821c905092915050565b60006120f2600019846008026120d4565b1980831691505092915050565b600061210b83836120e1565b9150826002028217905092915050565b61212482611363565b67ffffffffffffffff81111561213d5761213c6119cc565b5b6121478254611d8e565b61215282828561208e565b600060209050601f8311600181146121855760008415612173578287015190505b61217d85826120ff565b8655506121e5565b601f19841661219386611f6f565b60005b828110156121bb57848901518255600182019150602085019450602081019050612196565b868310156121d857848901516121d4601f8916826120e1565b8355505b6001600288020188555050505b505050505050565b7f506f6c6c20646f6573206e6f7420657869737400000000000000000000000000600082015250565b600061222360138361136e565b915061222e826121ed565b602082019050919050565b6000602082019050818103600083015261225281612216565b9050919050565b7f4f7074696f6e20646f6573206e6f742065786973740000000000000000000000600082015250565b600061228f60158361136e565b915061229a82612259565b602082019050919050565b600060208201905081810360008301526122be81612282565b9050919050565b7f506f6c6c206973206e6f74206163746976650000000000000000000000000000600082015250565b60006122fb60128361136e565b9150612306826122c5565b602082019050919050565b6000602082019050818103600083015261232a816122ee565b9050919050565b7f596f75206861766520616c726561647920766f74656400000000000000000000600082015250565b600061236760168361136e565b915061237282612331565b602082019050919050565b600060208201905081810360008301526123968161235a565b9050919050565b7f4e487b7100000000000000000000000000000000000000000000000000000000600052601160045260246000fd5b60006123d782611300565b91507fffffffffffffffffffffffffffffffffffffffffffffffffffffffffffffffff82036124095761240861239d565b5b60018201905091905056fea264697066735822122035132e2080af9c73190fd7dc70ac1d9cbe47bdde7d99d6a3399587cc6ff821b864736f6c634300081c0033",
  "linkReferences": {},
  "deployedLinkReferences": {}
}